:100000000C9434000C943E000C943E000C943E0082
:100010000C943E000C943E000C943E000C943E0068
:100020000C943E000C943E000C943E000C943E0058
:100030000C943E000C943E000C943E000C943E0048
:100040000C943E000C943E000C943E000C943E0038
:100050000C943E000C943E000C943E000C943E0028
:100060000C943E000C943E0011241FBECFEFD8E04C
:10007000DEBFCDBF0E9487000C943B010C940000B2
:1000800080E480937C0087E880937A0008959091C3
:100090007C00987F90937C0090917C008770892BE6
:1000A00080937C0080917A00806480937A008091B4
:1000B0007A0084FFFCCF80917A00806180937A007F
:1000C0002091780030917900C901089556985E9A80
:1000D00055985D9A08954D9B03C0289880E0089537
:1000E0000E94830081E008954E9B03C05F9880E0EA
:1000F00008950E94810081E00895579A209A3A9AC3
:1001000008955F9A0895289A0895429A08951F9332
:100110000E9440000E9466000E947D0087E690E0F9
:100120000E9428010E94AD000E947400182F0E94B6
:100130006B00113041F042980E947400182F0E9409
:100140006B001130C1F78130B1F780E00E944700A9
:100150000E94B9000E948500E7CFE0E8F0E08081CE
:1001600083688083E1E8F0E080818B608083219A5E
:100170000895DF93CF93CDB7DEB72A970FB6F894E3
:10018000DEBF0FBECDBF9093890080938800809121
:10019000880090918900833D910550F582E3898321
:1001A00080E38A8380EB8B8383E48C8380E28D837E
:1001B0001E8282E30E9433018A810E9433018B8177
:1001C0000E9433018C810E9433018D810E94330192
:1001D00080E00E94330180E49CE90197F1F72A96C0
:1001E0000FB6F894DEBF0FBECDBFCF91DF9108955B
:1001F0008091880090918900823D910590F48091D2
:100200008800909189008E5F9140B0F080918800C5
:1002100090918900875C924078F482E3898389E336
:10022000C0CF80918800909189008F5F914038F70E
:1002300082E3898385E3B5CF83E389838A8380EB77
:100240008B8383E48C8380E28D831E8283E3B2CF31
:100250008093C4009093C50086E48093C20088ED2B
:100260008093C1000895982F8091C00085FFFCCF36
:0A0270009093C6000895F894FFCFA4
:00000001FF
